:100000000C942A000C9447000C9447000C94470071
:100010000C9447000C9447000C9447000C94470044
:100020000C9447000C9447000C9447000C94470034
:100030000C9447000C9447000C9447000C94470024
:100040000C9447000C9447000C9447000C94470014
:100050000C94470011241FBECFE5D4E0DEBFCDBF16
:1000600010E0A0E6B0E0EAE1F5E002C005900D92F4
:10007000AC3CB107D9F721E0ACECB0E001C01D9277
:10008000A230B207E1F70E944F010C948B020C944E
:1000900000004F925F926F927F928F929F92AF92E9
:1000A000BF92CF92DF92EF92FF920F931F93CF9365
:1000B000DF93562E472E7C01842E952E3C0122E1A3
:1000C000620E711C3CC0F801EE0FFF1FEA0DFB1D14
:1000D00011821082252D342D80E090E06801CC0C37
:1000E000DD1CDC01AA0FBB1FAE0DBF1DCD91DC9145
:1000F000D901AC0DBD1D0D90BC91A02D4081518149
:10010000CA9FB001CB9F700DDA9F700D1124460F6E
:10011000571F5183408301962A5F3F4F83309105DB
:1001200001F70F5F1F4F0330110569F686E0E80EF7
:10013000F11C26E0820E911C6E147F0421F0540104
:1001400000E010E0C0CFDF91CF911F910F91FF90A1
:10015000EF90DF90CF90BF90AF909F908F907F9067
:100160006F905F904F9008952F923F924F925F92C1
:100170006F927F928F929F92AF92BF92CF92DF92B7
:10018000EF92FF920F931F93CF93DF93CDB7DEB71C
:1001900028970FB6F894DEBF0FBECDBF6B837C836C
:1001A0001C0149835A839C012C5D3F4F3E832D8364
:1001B00058C05601AA0CBB1CAA0CBB1CA80CB91C2D
:1001C000F50110821182128213820B811C81188624
:1001D0001F827601EE0CFF1CEE0CFF1CEF81F885F0
:1001E000EE0FFF1FEE0FFF1FE20DF31D6081718107
:1001F00082819381F801EE0DFF1D208131814281C2
:100200005381F50140805180628073800E941E02FC
:10021000A30192010E946101F501608371838283D1
:1002200093832F8138852F5F3F4F38872F83045F5B
:100230001F4F2330310591F63FEFC31AD30A83E0F5
:10024000C816D10409F0B5CF9CE0290E311CE98114
:10025000FA813C96FA83E9832D813E81221533058C
:1002600029F089809A80C12CD12CA3CF28960FB673
:10027000F894DEBF0FBECDBFDF91CF911F910F91DC
:10028000FF90EF90DF90CF90BF90AF909F908F90B6
:100290007F906F905F904F903F902F9008954CEC1F
:1002A00050E068EA70E08AEB90E00E9449004EED71
:1002B00050E060E670E084E890E00E94B400FFCF78
:1002C0005058BB27AA270E9478010C94E4010E9491
:1002D000D60138F00E94DD0120F039F49F3F19F477
:1002E00026F40C94D3010EF4E095E7FB0C94CD01B9
:1002F000E92F0E94F50158F3BA17620773078407C4
:10030000950720F079F4A6F50C9417020EF4E09509
:100310000B2EBA2FA02D0B01B90190010C01CA01BF
:10032000A0011124FF27591B99F0593F50F4503E6A
:1003300068F11A16F040A22F232F342F4427585F5C
:10034000F3CF469537952795A795F0405395C9F774
:100350007EF41F16BA0B620B730B840BBAF091502C
:10036000A1F0FF0FBB1F661F771F881FC2F70EC0CB
:10037000BA0F621F731F841F48F48795779567959E
:10038000B795F7959E3F08F0B0CF9395880F08F08A
:100390009927EE0F97958795089597F99F6780E8BD
:1003A00070E060E008959FEF80EC089500240A94C7
:1003B0001616170618060906089500240A94121640
:1003C0001306140605060895092E0394000C11F473
:1003D000882352F0BB0F40F4BF2B11F460FF04C020
:1003E0006F5F7F4F8F4F9F4F089557FD9058440F79
:1003F000551F59F05F3F71F04795880F97FB991F84
:1004000061F09F3F79F08795089512161306140640
:10041000551FF2CF4695F1DF08C0161617061806CD
:10042000991FF1CF86957105610508940895E894A8
:10043000BB2766277727CB0197F908950E943102E1
:100440000C94E4010E94D60138F00E94DD0120F0F6
:10045000952311F00C94CD010C94D30111240C942C
:1004600018020E94F50170F3959FC1F3950F50E0BB
:10047000551F629FF001729FBB27F00DB11D639F56
:10048000AA27F00DB11DAA1F649F6627B00DA11DFC
:10049000661F829F2227B00DA11D621F739FB00DA2
:1004A000A11D621F839FA00D611D221F749F332712
:1004B000A00D611D231F849F600D211D822F762FAB
:1004C0006A2F11249F5750409AF0F1F088234AF088
:1004D000EE0FFF1FBB1F661F771F881F91505040F4
:1004E000A9F79E3F510580F00C94CD010C941802A1
:1004F0005F3FE4F3983ED4F3869577956795B7957B
:10050000F795E7959F5FC1F7FE2B880F911D969594
:0A051000879597F90895F894FFCF3E
:10051A000000803F0000803F0000803F0000004054
:10052A000000004000000040000040400000404041
:10053A00000040400000803F0000803F0000803FF4
:10054A000000004000000040000000400000404061
:10055A00000040400000404001000100010002008C
:10056A000200020003000300030001000100010071
:0C057A0002000200020003000300030066
:00000001FF
