:020000020000FC
:0200000012C02C
:100024004FC004E00EBF0FE50DBF03E602BF03E0BF
:1000340003BF01E009BF1FEF50E01ABB14BB1BBB99
:1000440055BB789400EC0093600009EF00936100C5
:1000540004EA0093620000EB0093630009E9009353
:10006400640002E90093650002E80093660008EF6B
:100074000093670000E80093680000E900936900BA
:1000840001E00093760003950093770003950093B5
:100094007800039500937900039500937A00039503
:1000A40000937B00039500937C00039500937D00EF
:1000B40040E0A0E6B0E0C6E7D0E000C00000FECF1C
:1000C400483019F440E0C6E7D0E01BBB3991A30FD8
:1000D4002C91A31B403039F405B30894001F889475
:1000E40005BB0C94780005B3001F05BB2BBB03E6CE
:0600F40002BF43951895C0
:00000001FF
