:100000000C942A000C9447000C9447000C94470071
:100010000C9447000C9447000C9447000C94470044
:100020000C94FA000C940F010C9447000C941F01DF
:100030000C9447000C9447000C9447000C94470024
:100040000C9447000C9447000C9447000C94470014
:100050000C94470011241FBECFE5D4E0DEBFCDBF16
:1000600010E0A0E6B0E0E4E3F3E002C005900D92FA
:10007000A836B107D9F720E0A8E6B0E001C01D928C
:10008000AF36B207E1F70E94B1000C9498010C94CE
:10009000000083E682BF83E083BF89B7816089BFA8
:1000A0008FEF8ABB1BBA089586EF92EF9DBD8CBD82
:1000B0001FBC83E08EBD89B7846089BF089528E99D
:1000C0002AB990BD89B980E880BD86E080BD0895D9
:1000D000E0E6F0E024E630E05D9BFECF819184BD58
:1000E000E217F307C9F710926E0008955F9BFECFE9
:1000F0008CB18CB18F2D089580916900813061F0B1
:100100008BB3811103C08AEA8BBB03C08BB380958C
:100110008BBB81E0809369000895809169008130F4
:1001200079F08BB3882319F08BB3803819F481E010
:100130008BBB03C08BB3880F8BBB81E080936900BE
:10014000089580916900813059F08BB38F3F11F48D
:100150001BBA08958BB38F5F8BBB81E080936900DE
:100160000895F8940E9449000E94540080E490E0B1
:100170000E945F007894C4E6D0E011E0888181306D
:1001800089F40E947C00809168008130B9F7188260
:1001900019838BB380936C0080916B008BBB1092A2
:1001A0006800ECCF8981813089F40E948D008091B4
:1001B0006800813019F719821A838BB380936B0022
:1001C00080916A008BBB10926800D8CF8A81813001
:1001D000A9F60E94A10080916800813079F61A8208
:1001E00018838BB380936A0080916C008BBB109254
:1001F0006800C4CF1F920F920FB60F9211248F93F5
:100200009F9386EF92EF9DBD8CBD81E08093680047
:100210009F918F910F900FBE0F901F9018951F9276
:100220000F920FB60F9211248F9383E682BF109224
:1002300069008F910F900FBE0F901F9018951F921D
:100240000F920FB60F9211242F933F934F935F930A
:100250006F937F938F939F93AF93BF93EF93FF938E
:100260000E94760090916E0091110BC0833519F4B5
:1002700080936E004CC0813509F047C080936E00BA
:1002800046C09335D1F49FEC980F9330F0F581334D
:1002900021F481E08093640009C0823321F481E07D
:1002A0008093650003C081E08093660081E08093C5
:1002B0006D0088E580936E002AC09135B1F49FEC03
:1002C000980F933010F5813319F41092640007C031
:1002D000823319F41092650002C0109266001092E9
:1002E0006D0088E580936E0012C0983529F48D303A
:1002F00061F480936E000BC09D3039F48A3029F48C
:1003000080936E000E94680002C010926E00FF9100
:10031000EF91BF91AF919F918F917F916F915F917D
:100320004F913F912F910F900FBE0F901F901895F6
:04033000F894FFCF6F
:080334004F4B0D0A010000000F
:00000001FF
