S00C00006C6162342E73726563B5
S11300000C942A000C9447000C9447000C9447006D
S11300100C9447000C9447000C9447000C94470040
S11300200C9447000C947A000C9447000C949A00AA
S11300300C9447000C9447000C9447000C94470020
S11300400C9447000C9447000C9447000C94470010
S11300500C94470011241FBECFE5D4E0DEBFCDBF12
S113006010E0A0E6B0E0E4E0F2E002C005900D92FA
S1130070A037B107D9F720E0A0E7B0E001C01D9296
S1130080AA37B207E1F70E94F3000C9400010C9424
S11300900000A0E6B0E0C2E7D0E00895E2E7F0E0B7
S11300A008E01AE011930A95E9F70895E2E7F0E011
S11300B006E0E00F07E011911083E2500A95D9F7AA
S11300C00895EBE6F0E014E05D9BFECF219124BDA2
S11300D01A95D1F750E05093700008951BB117FFA3
S11300E0FDCF2CB12CB12F2D08951BB115FFFDCFE1
S11300F004BD089540917100483019F440E0C2E70E
S1130100D0E01FEF1BBB3991A30F2C91A31B4030F0
S113011039F405B30894001F889405BB0C9493002C
S113012005B3001F05BB2BBB03E602BF43954093F9
S113013071001895D3DF50917000503031F42134A0
S113014021F4522F509370001895503049F4233401
S113015011F02E3429F4522FA1DF5093700018951A
S1130160513431F4243521F4522F509370001895F2
S11301702D3051F4543521F0533411F05835A1F495
S1130180522F509370001895203374F02A3364F47E
S11301905E3411F0583541F489DF20532093720006
S11301A058E55093700018955D3021F42A3011F40D
S11301B088DF189550E050937000189583E682BF4D
S11301C083E083BF81E089BF8FEF8ABB84BB8BBB95
S11301D015BA089528E92AB990BD89B980E880BD87
S11301E086E080BD0895F8940E94DE0080E490E0EB
S11301F00E94EA0078940E9449000E944E00FFCFBA
S1070200F894FFCF9C
S1130204C0F9A4B0999282F88090FF4F4B0D0A0074
S9030000FC
