:100000000C942A000C9447000C9447000C94470071
:100010000C9447000C9447000C9447000C94470044
:100020000C9491010C94A6010C9447000C94B60119
:100030000C9447000C9447000C9447000C94470024
:100040000C9447000C9447000C9447000C94470014
:100050000C94470011241FBECFE5D4E0DEBFCDBF16
:1000600010E0A0E6B0E0E8E7F4E002C005900D92F1
:10007000A436B107D9F720E0A4E6B0E001C01D9294
:10008000AF36B207E1F70E94D6000C943A020C9406
:10009000000083E682BF83E083BF89B7816089BFA8
:1000A0008FEF8ABB1BBA089586EF92EC9DBD8CBD85
:1000B0001FBC83E08EBD89B7846089BF089528E99D
:1000C0002AB990BD89B980E880BD86E080BD0895D9
:1000D000E0E6F0E024E630E05D9BFECF819184BD58
:1000E000E217F307C9F710926E0008955F9BFECFE9
:1000F0008CB18CB18F2D089580916A00813061F0B0
:100100008BB3811103C08AEA8BBB03C08BB380958C
:100110008BBB81E080936A00089580916A008130F2
:1001200079F08BB3882319F08BB3803819F481E010
:100130008BBB03C08BB3880F8BBB81E080936A00BD
:10014000089580916A00813059F08BB38F3F11F48C
:100150001BBA08958BB38F5F8BBB81E080936A00DD
:1001600008958091670080FF04C081E0809364005F
:1001700004C01092640010926D008091670081FFAE
:1001800004C081E08093650004C010926500109265
:100190006C008091670082FF04C081E0809366005C
:1001A00008951092660010926B000895F8940E94D2
:1001B00049000E94540080E490E00E945F0078941F
:1001C000C4E6D0E00F2EF3E0EF2EF02D11E002E0B8
:1001D00080916800811115C00E94B1008881813032
:1001E00019F41093680014C08981813019F40093C8
:1001F000680038C08A81813009F061C0E0926800EF
:100200005EC08881813059F580916800813039F570
:100210000E947C00809169008130D1F60E94B1007B
:100220008981813049F48BB380936D0080916C009B
:100230008BBB0093680010C09A81913059F48111F2
:1002400009C08BB380936D0080916B008BBBE092F3
:10025000680002C01093680010926900B9CF8981CC
:10026000813069F580916800823049F50E948D00E7
:1002700080916900813009F0ABCF0E94B100888184
:10028000813061F48A81811109C08BB380936C0045
:1002900080916D008BBB109368000EC08A81813005
:1002A00049F48BB380936C0080916B008BBBE09220
:1002B000680002C0009368001092690089CF8A81AB
:1002C000813009F085CF80916800833009F080CFBC
:1002D0000E94A10080916900813009F079CF0E94CD
:1002E000B1008981813061F48881811109C08BB3AB
:1002F00080936B0080916C008BBB009368000EC0F4
:100300008881813049F48BB380936B0080916D00BC
:100310008BBB1093680002C0E092680010926900E5
:1003200057CF1F920F920FB60F9211248F939F9366
:1003300086EF92EC9DBD8CBD81E0809369009F911A
:100340008F910F900FBE0F901F9018951F920F92D4
:100350000FB60F9211248F9383E682BF10926A002A
:100360008F910F900FBE0F901F9018951F920F92B4
:100370000FB60F9211242F933F934F935F936F9378
:100380007F938F939F93AF93BF93EF93FF930E94BD
:10039000760090916E0091110BC0833519F4809313
:1003A0006E0057C0813509F052C080936E0051C075
:1003B0009335F1F49FEC980F933008F048C08133E7
:1003C00031F4809167008160809367000DC08233B3
:1003D00031F48091670082608093670005C080914E
:1003E000670084608093670088E580936E0031C069
:1003F0009135E9F49FEC980F933048F5813331F44F
:10040000809167008E7F809367000DC0823331F446
:10041000809167008D7F8093670005C080916700A1
:100420008B7F8093670088E580936E0012C09835BB
:1004300029F48D3061F480936E000BC09D3039F447
:100440008A3029F480936E000E94680002C01092E6
:100450006E00FF91EF91BF91AF919F918F917F912E
:100460006F915F914F913F912F910F900FBE0F9021
:080470001F901895F894FFCFCE
:040478004F4B0D0ACF
:00000001FF
