S00D00006C616239622E737265634D
S11300000C942A000C9444000C9454000C94340076
S11300100C9434000C9434000C9434000C9434008C
S11300200C9434000C9434000C9434000C9434007C
S11300300C9434000C9434000C9434000C9434006C
S11300400C9434000C9434000C9434000C9434005C
S11300500C94340011241FBECFE5D4E0DEBFCDBF25
S11300600E943D000C9464000C9400008BB7806CDB
S11300708BBF8AE085BFD29A0895F8940E94360017
S1130080789484E08BBBFFCF1F920F920FB60F9230
S11300901124939B02C0DA9802C0939BDA9A0F90C2
S11300A00FBE0F901F9018951F920F920FB60F92CC
S11300B01124929B02C0DA9A02C0929BDA980F90A4
S10F00C00FBE0F901F901895F894FFCF0E
S9030000FC
