S00C00006C6162352E73726563B4
S11300000C942A000C9447000C9447000C9447006D
S11300100C9447000C9447000C9447000C94470040
S11300200C9447000C9491000C9447000C94C70066
S11300300C9447000C9447000C9447000C94470020
S11300400C9447000C9447000C9447000C94470010
S11300500C94470011241FBECFE5D4E0DEBFCDBF12
S113006010E0A0E6B0E0E6E7F2E002C005900D92F1
S1130070A037B107D9F720E0A0E7B0E001C01D9296
S1130080AB37B207E1F70E9486000C9439010C9457
S1130090000083E682BF83E083BF81E089BF8FEFE6
S11300A08ABB84BB8BBB15BA089528E92AB990BDD5
S11300B089B980E880BD86E080BD0895E3E7F0E07B
S11300C02BE730E08AE08193E217F307E1F7089524
S11300D0EAE7F0E023E730E082918183E217F30757
S11300E0D9F70895EBE6F0E02FE630E05D9BFECF14
S11300F0819184BDE217F307C9F710927100089546
S11301005F9BFECF8CB18CB18F2D0895F8940E9423
S1130110490080E490E00E94550078940E945E00BB
S1130120FFCF1F920F920FB60F9211248F939F93BC
S1130130EF93FF9380917200883011F41092720053
S1130140E0917200F0E0ED58FF4FE0818FEF8BBB40
S113015081E090E00090720002C0880F991F0A9419
S1130160E2F785BBF0E0E05AFF4F80818BBB83E66A
S113017082BF809172008F5F80937200FF91EF9134
S11301809F918F910F900FBE0F901F9018951F9203
S11301900F920FB60F9211242F933F934F935F93B7
S11301A06F937F938F939F93AF93BF93CF93DF937B
S11301B0EF93FF930E948000C82F809171008111FA
S11301C011C0C13421F481E4809371003FC0C33471
S11301D011F0CE3479F40E945E0010927000C09346
S11301E0710034C0813431F4C43521F484E5809342
S11301F071002CC0CD3051F4843521F0833411F0DA
S1130200883511F58DE08093710020C0D0EDDC0FAE
S1130210DA3098F48E3411F0883579F40E9468004D
S1130220809170008F5F80937000893078F4D09350
S1130230730088E58093710009C08D3029F4CA30B9
S113024019F40E94720002C010927100FF91EF91A4
S1130250DF91CF91BF91AF919F918F917F916F91DA
S11302605F914F913F912F910F900FBE0F901F9070
S10902701895F894FFCF7D
S1130276C0F9A4B0999282F88090FF4F4B0D0A0002
S9030000FC
