:020000020000FC
:0200000016C028
:020024007FC09B
:10002C0097C004E00EBF0FE50DBF03E602BF03E06F
:10003C0003BF01E009BF1FEF20E01ABB14BB1BBBC1
:10004C0025BB00EC0093600009EF0093610004EA0B
:10005C000093620000EB0093630009E900936400D5
:10006C0002E90093650002E80093660008EF009334
:10007C00670000E80093680000E9009369000FEF47
:10008C0000936A000FE4009390000BE4009391003E
:10009C000DE0009392000AE00093930040E0A0E68C
:1000AC00B0E0C0E8D0E00ED0F89408E90AB900E856
:1000BC0000BD06E000BD01E410E010BD09B9789464
:1000CC000000FECFE0E8F0E008E01AE011930A959A
:1000DC00E9F70895E0E8F0E006E0E00F07E01191A1
:1000EC001083E2500A95D9F70895E0E9F0E014E0A6
:1000FC005D9BFECF219124BD1A95D1F750E0089558
:10010C001BB117FFFDCF2CB12CB12F2D08951BB1B6
:10011C0015FFFDCF04BD0895483019F440E0C0E848
:10012C00D0E01FEF1BBB3991A30F2C91A31B4030C8
:10013C0039F405B30894001F889405BB0C94A900EE
:10014C0005B3001F05BB2BBB03E602BF43951895F7
:10015C00D7DF503021F4213411F4522F1895503040
:10016C0039F4233411F02E3419F4522FABDF1895D7
:10017C00513421F4243511F4522F18952D3041F4BB
:10018C00543521F0533411F0583581F4522F189511
:10019C00203364F02A3354F45E3411F0583531F4C2
:1001AC0099DF20532093800058E518955D3021F499
:0C01BC002A3011F49ADF189550E01895D5
:00000001FF
