:100000000C942A000C9447000C9447000C94470071
:100010000C9447000C9447000C9447000C94470044
:100020000C9447000C94AA000C9447000C94E10037
:100030000C9447000C9447000C9447000C94470024
:100040000C9447000C9447000C9447000C94470014
:100050000C94470011241FBECFE5D4E0DEBFCDBF16
:1000600010E0A0E6B0E0EAEAF2E002C005900D92EE
:10007000A237B107D9F720E0A2E7B0E001C01D9296
:10008000AD37B207E1F70E949D000C9453010C9428
:10009000000083E682BF83E083BF81E089BF8FEFEA
:1000A0008ABB84BB8BBB15BA089528E92AB990BDD9
:1000B00089B980E880BD86E080BD089504B603FE5E
:1000C0000EC084B7877F84BFEFE6F0E022E730E020
:1000D0005D9BFECF819184BDE217F307C9F781B51F
:1000E000886181BD8AE081BD0895E5E7F0E02DE7F4
:1000F00030E08AE08193E217F307E1F70895ECE737
:10010000F0E025E730E082918183E217F307D9F729
:100110000895EBE6F0E02FE630E05D9BFECF8191A5
:1001200084BDE217F307C9F71092730008955F9B2F
:10013000FECF8CB18CB18F2D0895F8940E944900A8
:1001400080E490E00E9455000E945E0078940E9436
:100150007500FFCF1F920F920FB60F9211248F934D
:100160009F93EF93FF9380917400883011F4109265
:100170007400E0917400F0E0EB58FF4FE0818FEFE6
:100180008BBB81E090E00090740002C0880F991F43
:100190000A94E2F785BBF0E0E05AFF4F80818BBB09
:1001A00083E682BF809174008F5F80937400A8956E
:1001B000FF91EF919F918F910F900FBE0F901F9025
:1001C00018951F920F920FB60F9211242F933F9301
:1001D0004F935F936F937F938F939F93AF93BF934F
:1001E000CF93DF93EF93FF930E949700C82F8091E6
:1001F0007300811111C0C13421F481E48093730034
:100200003EC0C33411F0CE3479F40E9475001092D0
:100210007200C093730033C0813431F4C43521F4CB
:1002200084E5809373002BC0CD3051F4843521F0E8
:10023000833411F0883511F58DE0809373001FC071
:10024000D0EDDC0FDA3098F48E3411F0883579F483
:100250000E947F00809172008F5F809372008930CE
:1002600070F4D093750088E58093730008C08D30DA
:1002700029F4CA3019F40E94890001C0FFCFA89563
:10028000FF91EF91DF91CF91BF91AF919F918F91AE
:100290007F916F915F914F913F912F910F900FBE82
:0A02A0000F901F901895F894FFCFFF
:1002AA00C0F9A4B0999282F88090FF4F4B0D0A5280
:0202BA000D0A2B
:00000001FF
