:100000000C942A000C9447000C9447000C94470071
:100010000C9447000C9447000C9447000C94470044
:100020000C9447000C9463000C9447000C94470018
:100030000C9447000C9447000C9447000C94470024
:100040000C9447000C9447000C9447000C94470014
:100050000C94470011241FBECFE5D4E0DEBFCDBF16
:1000600010E0A0E6B0E0E6ECF1E002C005900D92F1
:10007000A236B107D9F720E0A2E6B0E001C01D9298
:10008000A436B207E1F70E9454000C94E1000C94EE
:10009000000083E682BF83E083BF89B7816089BFA8
:1000A00084E08ABB1BBA0895F8940E9449007894B2
:1000B0009BB380916100892B8BBB9BB380916000C7
:1000C000892B8BBBFFCF1F920F920FB60F9211247B
:1000D0002F938F939F93909161008BB381709813AE
:1000E00026C0209160008BB38270821701F121FF3E
:1000F00008C0D9990EC0809162008B7F8093620006
:100100000FC0D99B0DC08091620084608093620013
:1001100007C0D99B05C08091620084608093620013
:10012000109263008BB382708093600040C08BB3E9
:1001300082702091600082132CC08BB3817098175D
:1001400041F190FF08C0D8990EC0809162008B7F6A
:100150008093620017C0D89B15C0809162008460B4
:10016000809362000FC0D89B0DC092FF06C08091A3
:10017000620084608093620005C0809162008B7F82
:1001800080936200109263008BB381708093610052
:100190000EC0809163008F5F809363008A3039F4D2
:1001A0008091620082FF02C0DA9A01C0DA9883E689
:1001B00082BF9F918F912F910F900FBE0F901F9034
:0601C0001895F894FFCF32
:0201C600040132
:00000001FF
